{
	"token.sol": {
		"QuizGame": {
			"abi": [
				{
					"inputs": [
						{
							"internalType": "address",
							"name": "_tokenAddress",
							"type": "address"
						},
						{
							"internalType": "uint256",
							"name": "_rewardAmount",
							"type": "uint256"
						}
					],
					"stateMutability": "nonpayable",
					"type": "constructor"
				},
				{
					"anonymous": false,
					"inputs": [
						{
							"indexed": true,
							"internalType": "address",
							"name": "player",
							"type": "address"
						},
						{
							"indexed": false,
							"internalType": "bool",
							"name": "isSuccessful",
							"type": "bool"
						}
					],
					"name": "QuizCompleted",
					"type": "event"
				},
				{
					"inputs": [
						{
							"internalType": "address",
							"name": "",
							"type": "address"
						}
					],
					"name": "hasPlayed",
					"outputs": [
						{
							"internalType": "bool",
							"name": "",
							"type": "bool"
						}
					],
					"stateMutability": "view",
					"type": "function"
				},
				{
					"inputs": [
						{
							"internalType": "string[]",
							"name": "answers",
							"type": "string[]"
						}
					],
					"name": "playQuiz",
					"outputs": [],
					"stateMutability": "nonpayable",
					"type": "function"
				},
				{
					"inputs": [],
					"name": "rewardAmount",
					"outputs": [
						{
							"internalType": "uint256",
							"name": "",
							"type": "uint256"
						}
					],
					"stateMutability": "view",
					"type": "function"
				},
				{
					"inputs": [],
					"name": "tokenAddress",
					"outputs": [
						{
							"internalType": "address",
							"name": "",
							"type": "address"
						}
					],
					"stateMutability": "view",
					"type": "function"
				}
			],
			"devdoc": {
				"kind": "dev",
				"methods": {},
				"version": 1
			},
			"evm": {
				"assembly": "    /* \"token.sol\":606:2055  contract QuizGame {... */\n  mstore(0x40, 0x80)\n    /* \"token.sol\":820:964  constructor(address _tokenAddress, uint256 _rewardAmount) {... */\n  callvalue\n  dup1\n  iszero\n  tag_1\n  jumpi\n  0x00\n  dup1\n  revert\ntag_1:\n  pop\n  mload(0x40)\n  sub(codesize, bytecodeSize)\n  dup1\n  bytecodeSize\n  dup4\n  codecopy\n  dup2\n  dup2\n  add\n  0x40\n  mstore\n  dup2\n  add\n  swap1\n  tag_2\n  swap2\n  swap1\n  tag_3\n  jump\t// in\ntag_2:\n    /* \"token.sol\":904:917  _tokenAddress */\n  dup2\n    /* \"token.sol\":889:901  tokenAddress */\n  0x00\n  dup1\n    /* \"token.sol\":889:917  tokenAddress = _tokenAddress */\n  0x0100\n  exp\n  dup2\n  sload\n  dup2\n  0xffffffffffffffffffffffffffffffffffffffff\n  mul\n  not\n  and\n  swap1\n  dup4\n  0xffffffffffffffffffffffffffffffffffffffff\n  and\n  mul\n  or\n  swap1\n  sstore\n  pop\n    /* \"token.sol\":943:956  _rewardAmount */\n  dup1\n    /* \"token.sol\":928:940  rewardAmount */\n  0x01\n    /* \"token.sol\":928:956  rewardAmount = _rewardAmount */\n  dup2\n  swap1\n  sstore\n  pop\n    /* \"token.sol\":820:964  constructor(address _tokenAddress, uint256 _rewardAmount) {... */\n  pop\n  pop\n    /* \"token.sol\":606:2055  contract QuizGame {... */\n  jump(tag_6)\n    /* \"#utility.yul\":88:205   */\ntag_8:\n    /* \"#utility.yul\":197:198   */\n  0x00\n    /* \"#utility.yul\":194:195   */\n  dup1\n    /* \"#utility.yul\":187:199   */\n  revert\n    /* \"#utility.yul\":334:460   */\ntag_10:\n    /* \"#utility.yul\":371:378   */\n  0x00\n    /* \"#utility.yul\":411:453   */\n  0xffffffffffffffffffffffffffffffffffffffff\n    /* \"#utility.yul\":404:409   */\n  dup3\n    /* \"#utility.yul\":400:454   */\n  and\n    /* \"#utility.yul\":389:454   */\n  swap1\n  pop\n    /* \"#utility.yul\":334:460   */\n  swap2\n  swap1\n  pop\n  jump\t// out\n    /* \"#utility.yul\":466:562   */\ntag_11:\n    /* \"#utility.yul\":503:510   */\n  0x00\n    /* \"#utility.yul\":532:556   */\n  tag_23\n    /* \"#utility.yul\":550:555   */\n  dup3\n    /* \"#utility.yul\":532:556   */\n  tag_10\n  jump\t// in\ntag_23:\n    /* \"#utility.yul\":521:556   */\n  swap1\n  pop\n    /* \"#utility.yul\":466:562   */\n  swap2\n  swap1\n  pop\n  jump\t// out\n    /* \"#utility.yul\":568:690   */\ntag_12:\n    /* \"#utility.yul\":641:665   */\n  tag_25\n    /* \"#utility.yul\":659:664   */\n  dup2\n    /* \"#utility.yul\":641:665   */\n  tag_11\n  jump\t// in\ntag_25:\n    /* \"#utility.yul\":634:639   */\n  dup2\n    /* \"#utility.yul\":631:666   */\n  eq\n    /* \"#utility.yul\":621:684   */\n  tag_26\n  jumpi\n    /* \"#utility.yul\":680:681   */\n  0x00\n    /* \"#utility.yul\":677:678   */\n  dup1\n    /* \"#utility.yul\":670:682   */\n  revert\n    /* \"#utility.yul\":621:684   */\ntag_26:\n    /* \"#utility.yul\":568:690   */\n  pop\n  jump\t// out\n    /* \"#utility.yul\":696:839   */\ntag_13:\n    /* \"#utility.yul\":753:758   */\n  0x00\n    /* \"#utility.yul\":784:790   */\n  dup2\n    /* \"#utility.yul\":778:791   */\n  mload\n    /* \"#utility.yul\":769:791   */\n  swap1\n  pop\n    /* \"#utility.yul\":800:833   */\n  tag_28\n    /* \"#utility.yul\":827:832   */\n  dup2\n    /* \"#utility.yul\":800:833   */\n  tag_12\n  jump\t// in\ntag_28:\n    /* \"#utility.yul\":696:839   */\n  swap3\n  swap2\n  pop\n  pop\n  jump\t// out\n    /* \"#utility.yul\":845:922   */\ntag_14:\n    /* \"#utility.yul\":882:889   */\n  0x00\n    /* \"#utility.yul\":911:916   */\n  dup2\n    /* \"#utility.yul\":900:916   */\n  swap1\n  pop\n    /* \"#utility.yul\":845:922   */\n  swap2\n  swap1\n  pop\n  jump\t// out\n    /* \"#utility.yul\":928:1050   */\ntag_15:\n    /* \"#utility.yul\":1001:1025   */\n  tag_31\n    /* \"#utility.yul\":1019:1024   */\n  dup2\n    /* \"#utility.yul\":1001:1025   */\n  tag_14\n  jump\t// in\ntag_31:\n    /* \"#utility.yul\":994:999   */\n  dup2\n    /* \"#utility.yul\":991:1026   */\n  eq\n    /* \"#utility.yul\":981:1044   */\n  tag_32\n  jumpi\n    /* \"#utility.yul\":1040:1041   */\n  0x00\n    /* \"#utility.yul\":1037:1038   */\n  dup1\n    /* \"#utility.yul\":1030:1042   */\n  revert\n    /* \"#utility.yul\":981:1044   */\ntag_32:\n    /* \"#utility.yul\":928:1050   */\n  pop\n  jump\t// out\n    /* \"#utility.yul\":1056:1199   */\ntag_16:\n    /* \"#utility.yul\":1113:1118   */\n  0x00\n    /* \"#utility.yul\":1144:1150   */\n  dup2\n    /* \"#utility.yul\":1138:1151   */\n  mload\n    /* \"#utility.yul\":1129:1151   */\n  swap1\n  pop\n    /* \"#utility.yul\":1160:1193   */\n  tag_34\n    /* \"#utility.yul\":1187:1192   */\n  dup2\n    /* \"#utility.yul\":1160:1193   */\n  tag_15\n  jump\t// in\ntag_34:\n    /* \"#utility.yul\":1056:1199   */\n  swap3\n  swap2\n  pop\n  pop\n  jump\t// out\n    /* \"#utility.yul\":1205:1712   */\ntag_3:\n    /* \"#utility.yul\":1284:1290   */\n  0x00\n    /* \"#utility.yul\":1292:1298   */\n  dup1\n    /* \"#utility.yul\":1341:1343   */\n  0x40\n    /* \"#utility.yul\":1329:1338   */\n  dup4\n    /* \"#utility.yul\":1320:1327   */\n  dup6\n    /* \"#utility.yul\":1316:1339   */\n  sub\n    /* \"#utility.yul\":1312:1344   */\n  slt\n    /* \"#utility.yul\":1309:1428   */\n  iszero\n  tag_36\n  jumpi\n    /* \"#utility.yul\":1347:1426   */\n  tag_37\n  tag_8\n  jump\t// in\ntag_37:\n    /* \"#utility.yul\":1309:1428   */\ntag_36:\n    /* \"#utility.yul\":1467:1468   */\n  0x00\n    /* \"#utility.yul\":1492:1556   */\n  tag_38\n    /* \"#utility.yul\":1548:1555   */\n  dup6\n    /* \"#utility.yul\":1539:1545   */\n  dup3\n    /* \"#utility.yul\":1528:1537   */\n  dup7\n    /* \"#utility.yul\":1524:1546   */\n  add\n    /* \"#utility.yul\":1492:1556   */\n  tag_13\n  jump\t// in\ntag_38:\n    /* \"#utility.yul\":1482:1556   */\n  swap3\n  pop\n    /* \"#utility.yul\":1438:1566   */\n  pop\n    /* \"#utility.yul\":1605:1607   */\n  0x20\n    /* \"#utility.yul\":1631:1695   */\n  tag_39\n    /* \"#utility.yul\":1687:1694   */\n  dup6\n    /* \"#utility.yul\":1678:1684   */\n  dup3\n    /* \"#utility.yul\":1667:1676   */\n  dup7\n    /* \"#utility.yul\":1663:1685   */\n  add\n    /* \"#utility.yul\":1631:1695   */\n  tag_16\n  jump\t// in\ntag_39:\n    /* \"#utility.yul\":1621:1695   */\n  swap2\n  pop\n    /* \"#utility.yul\":1576:1705   */\n  pop\n    /* \"#utility.yul\":1205:1712   */\n  swap3\n  pop\n  swap3\n  swap1\n  pop\n  jump\t// out\n    /* \"token.sol\":606:2055  contract QuizGame {... */\ntag_6:\n  dataSize(sub_0)\n  dup1\n  dataOffset(sub_0)\n  0x00\n  codecopy\n  0x00\n  return\nstop\n\nsub_0: assembly {\n        /* \"token.sol\":606:2055  contract QuizGame {... */\n      mstore(0x40, 0x80)\n      callvalue\n      dup1\n      iszero\n      tag_1\n      jumpi\n      0x00\n      dup1\n      revert\n    tag_1:\n      pop\n      jumpi(tag_2, lt(calldatasize, 0x04))\n      shr(0xe0, calldataload(0x00))\n      dup1\n      0x32d0bbe3\n      eq\n      tag_3\n      jumpi\n      dup1\n      0x6e04721f\n      eq\n      tag_4\n      jumpi\n      dup1\n      0x9d76ea58\n      eq\n      tag_5\n      jumpi\n      dup1\n      0xf7b2a7be\n      eq\n      tag_6\n      jumpi\n    tag_2:\n      0x00\n      dup1\n      revert\n        /* \"token.sol\":699:740  mapping(address => bool) public hasPlayed */\n    tag_3:\n      tag_7\n      0x04\n      dup1\n      calldatasize\n      sub\n      dup2\n      add\n      swap1\n      tag_8\n      swap2\n      swap1\n      tag_9\n      jump\t// in\n    tag_8:\n      tag_10\n      jump\t// in\n    tag_7:\n      mload(0x40)\n      tag_11\n      swap2\n      swap1\n      tag_12\n      jump\t// in\n    tag_11:\n      mload(0x40)\n      dup1\n      swap2\n      sub\n      swap1\n      return\n        /* \"token.sol\":972:2052  function playQuiz(string[] memory answers) external {... */\n    tag_4:\n      tag_13\n      0x04\n      dup1\n      calldatasize\n      sub\n      dup2\n      add\n      swap1\n      tag_14\n      swap2\n      swap1\n      tag_15\n      jump\t// in\n    tag_14:\n      tag_16\n      jump\t// in\n    tag_13:\n      stop\n        /* \"token.sol\":631:658  address public tokenAddress */\n    tag_5:\n      tag_17\n      tag_18\n      jump\t// in\n    tag_17:\n      mload(0x40)\n      tag_19\n      swap2\n      swap1\n      tag_20\n      jump\t// in\n    tag_19:\n      mload(0x40)\n      dup1\n      swap2\n      sub\n      swap1\n      return\n        /* \"token.sol\":665:692  uint256 public rewardAmount */\n    tag_6:\n      tag_21\n      tag_22\n      jump\t// in\n    tag_21:\n      mload(0x40)\n      tag_23\n      swap2\n      swap1\n      tag_24\n      jump\t// in\n    tag_23:\n      mload(0x40)\n      dup1\n      swap2\n      sub\n      swap1\n      return\n        /* \"token.sol\":699:740  mapping(address => bool) public hasPlayed */\n    tag_10:\n      mstore(0x20, 0x02)\n      dup1\n      0x00\n      mstore\n      keccak256(0x00, 0x40)\n      0x00\n      swap2\n      pop\n      sload\n      swap1\n      0x0100\n      exp\n      swap1\n      div\n      0xff\n      and\n      dup2\n      jump\t// out\n        /* \"token.sol\":972:2052  function playQuiz(string[] memory answers) external {... */\n    tag_16:\n        /* \"token.sol\":1044:1053  hasPlayed */\n      0x02\n        /* \"token.sol\":1044:1065  hasPlayed[msg.sender] */\n      0x00\n        /* \"token.sol\":1054:1064  msg.sender */\n      caller\n        /* \"token.sol\":1044:1065  hasPlayed[msg.sender] */\n      0xffffffffffffffffffffffffffffffffffffffff\n      and\n      0xffffffffffffffffffffffffffffffffffffffff\n      and\n      dup2\n      mstore\n      0x20\n      add\n      swap1\n      dup2\n      mstore\n      0x20\n      add\n      0x00\n      keccak256\n      0x00\n      swap1\n      sload\n      swap1\n      0x0100\n      exp\n      swap1\n      div\n      0xff\n      and\n        /* \"token.sol\":1043:1065  !hasPlayed[msg.sender] */\n      iszero\n        /* \"token.sol\":1035:1093  require(!hasPlayed[msg.sender], \"Already played the quiz\") */\n      tag_26\n      jumpi\n      mload(0x40)\n      0x08c379a000000000000000000000000000000000000000000000000000000000\n      dup2\n      mstore\n      0x04\n      add\n      tag_27\n      swap1\n      tag_28\n      jump\t// in\n    tag_27:\n      mload(0x40)\n      dup1\n      swap2\n      sub\n      swap1\n      revert\n    tag_26:\n        /* \"token.sol\":1311:1312  5 */\n      0x05\n        /* \"token.sol\":1293:1300  answers */\n      dup2\n        /* \"token.sol\":1293:1307  answers.length */\n      mload\n        /* \"token.sol\":1293:1312  answers.length == 5 */\n      eq\n        /* \"token.sol\":1285:1353  require(answers.length == 5, \"Incorrect number of answers provided\") */\n      tag_29\n      jumpi\n      mload(0x40)\n      0x08c379a000000000000000000000000000000000000000000000000000000000\n      dup2\n      mstore\n      0x04\n      add\n      tag_30\n      swap1\n      tag_31\n      jump\t// in\n    tag_30:\n      mload(0x40)\n      dup1\n      swap2\n      sub\n      swap1\n      revert\n    tag_29:\n        /* \"token.sol\":1420:1451  string[5] memory correctAnswers */\n      0x00\n        /* \"token.sol\":1420:1479  string[5] memory correctAnswers = [\"A\", \"B\", \"C\", \"D\", \"E\"] */\n      mload(0x40)\n      dup1\n      0xa0\n      add\n      0x40\n      mstore\n      dup1\n      mload(0x40)\n      dup1\n      0x40\n      add\n      0x40\n      mstore\n      dup1\n      0x01\n      dup2\n      mstore\n      0x20\n      add\n      0x4100000000000000000000000000000000000000000000000000000000000000\n      dup2\n      mstore\n      pop\n      dup2\n      mstore\n      0x20\n      add\n      mload(0x40)\n      dup1\n      0x40\n      add\n      0x40\n      mstore\n      dup1\n      0x01\n      dup2\n      mstore\n      0x20\n      add\n      0x4200000000000000000000000000000000000000000000000000000000000000\n      dup2\n      mstore\n      pop\n      dup2\n      mstore\n      0x20\n      add\n      mload(0x40)\n      dup1\n      0x40\n      add\n      0x40\n      mstore\n      dup1\n      0x01\n      dup2\n      mstore\n      0x20\n      add\n      0x4300000000000000000000000000000000000000000000000000000000000000\n      dup2\n      mstore\n      pop\n      dup2\n      mstore\n      0x20\n      add\n      mload(0x40)\n      dup1\n      0x40\n      add\n      0x40\n      mstore\n      dup1\n      0x01\n      dup2\n      mstore\n      0x20\n      add\n      0x4400000000000000000000000000000000000000000000000000000000000000\n      dup2\n      mstore\n      pop\n      dup2\n      mstore\n      0x20\n      add\n      mload(0x40)\n      dup1\n      0x40\n      add\n      0x40\n      mstore\n      dup1\n      0x01\n      dup2\n      mstore\n      0x20\n      add\n      0x4500000000000000000000000000000000000000000000000000000000000000\n      dup2\n      mstore\n      pop\n      dup2\n      mstore\n      pop\n      swap1\n      pop\n        /* \"token.sol\":1545:1564  bool quizSuccessful */\n      0x00\n        /* \"token.sol\":1567:1571  true */\n      0x01\n        /* \"token.sol\":1545:1571  bool quizSuccessful = true */\n      swap1\n      pop\n        /* \"token.sol\":1587:1596  uint256 i */\n      0x00\n        /* \"token.sol\":1582:1794  for (uint256 i = 0; i < 5; i++) {... */\n    tag_32:\n        /* \"token.sol\":1606:1607  5 */\n      0x05\n        /* \"token.sol\":1602:1603  i */\n      dup2\n        /* \"token.sol\":1602:1607  i < 5 */\n      lt\n        /* \"token.sol\":1582:1794  for (uint256 i = 0; i < 5; i++) {... */\n      iszero\n      tag_33\n      jumpi\n        /* \"token.sol\":1681:1695  correctAnswers */\n      dup3\n        /* \"token.sol\":1696:1697  i */\n      dup2\n        /* \"token.sol\":1681:1698  correctAnswers[i] */\n      0x05\n      dup2\n      lt\n      tag_35\n      jumpi\n      tag_36\n      tag_37\n      jump\t// in\n    tag_36:\n    tag_35:\n      0x20\n      mul\n      add\n      mload\n        /* \"token.sol\":1665:1700  keccak256(bytes(correctAnswers[i])) */\n      dup1\n      mload\n      swap1\n      0x20\n      add\n      keccak256\n        /* \"token.sol\":1649:1656  answers */\n      dup5\n        /* \"token.sol\":1657:1658  i */\n      dup3\n        /* \"token.sol\":1649:1659  answers[i] */\n      dup2\n      mload\n      dup2\n      lt\n      tag_38\n      jumpi\n      tag_39\n      tag_37\n      jump\t// in\n    tag_39:\n    tag_38:\n      0x20\n      mul\n      0x20\n      add\n      add\n      mload\n        /* \"token.sol\":1633:1661  keccak256(bytes(answers[i])) */\n      dup1\n      mload\n      swap1\n      0x20\n      add\n      keccak256\n        /* \"token.sol\":1633:1700  keccak256(bytes(answers[i])) != keccak256(bytes(correctAnswers[i])) */\n      eq\n        /* \"token.sol\":1629:1783  if (keccak256(bytes(answers[i])) != keccak256(bytes(correctAnswers[i]))) {... */\n      tag_40\n      jumpi\n        /* \"token.sol\":1738:1743  false */\n      0x00\n        /* \"token.sol\":1721:1743  quizSuccessful = false */\n      swap2\n      pop\n        /* \"token.sol\":1762:1767  break */\n      jump(tag_33)\n        /* \"token.sol\":1629:1783  if (keccak256(bytes(answers[i])) != keccak256(bytes(correctAnswers[i]))) {... */\n    tag_40:\n        /* \"token.sol\":1609:1612  i++ */\n      dup1\n      dup1\n      0x01\n      add\n      swap2\n      pop\n      pop\n        /* \"token.sol\":1582:1794  for (uint256 i = 0; i < 5; i++) {... */\n      jump(tag_32)\n    tag_33:\n      pop\n        /* \"token.sol\":1810:1824  quizSuccessful */\n      dup1\n        /* \"token.sol\":1806:1947  if (quizSuccessful) {... */\n      iszero\n      tag_41\n      jumpi\n        /* \"token.sol\":1841:1857  AshokuCoin token */\n      0x00\n        /* \"token.sol\":1871:1883  tokenAddress */\n      dup1\n      0x00\n      swap1\n      sload\n      swap1\n      0x0100\n      exp\n      swap1\n      div\n      0xffffffffffffffffffffffffffffffffffffffff\n      and\n        /* \"token.sol\":1841:1884  AshokuCoin token = AshokuCoin(tokenAddress) */\n      swap1\n      pop\n        /* \"token.sol\":1899:1904  token */\n      dup1\n        /* \"token.sol\":1899:1909  token.mint */\n      0xffffffffffffffffffffffffffffffffffffffff\n      and\n      0x40c10f19\n        /* \"token.sol\":1910:1920  msg.sender */\n      caller\n        /* \"token.sol\":1922:1934  rewardAmount */\n      sload(0x01)\n        /* \"token.sol\":1899:1935  token.mint(msg.sender, rewardAmount) */\n      mload(0x40)\n      dup4\n      0xffffffff\n      and\n      0xe0\n      shl\n      dup2\n      mstore\n      0x04\n      add\n      tag_42\n      swap3\n      swap2\n      swap1\n      tag_43\n      jump\t// in\n    tag_42:\n      0x00\n      mload(0x40)\n      dup1\n      dup4\n      sub\n      dup2\n      0x00\n      dup8\n      dup1\n      extcodesize\n      iszero\n      dup1\n      iszero\n      tag_44\n      jumpi\n      0x00\n      dup1\n      revert\n    tag_44:\n      pop\n      gas\n      call\n      iszero\n      dup1\n      iszero\n      tag_46\n      jumpi\n      returndatasize\n      0x00\n      dup1\n      returndatacopy\n      revert(0x00, returndatasize)\n    tag_46:\n      pop\n      pop\n      pop\n      pop\n        /* \"token.sol\":1826:1947  {... */\n      pop\n        /* \"token.sol\":1806:1947  if (quizSuccessful) {... */\n    tag_41:\n        /* \"token.sol\":1983:1987  true */\n      0x01\n        /* \"token.sol\":1959:1968  hasPlayed */\n      0x02\n        /* \"token.sol\":1959:1980  hasPlayed[msg.sender] */\n      0x00\n        /* \"token.sol\":1969:1979  msg.sender */\n      caller\n        /* \"token.sol\":1959:1980  hasPlayed[msg.sender] */\n      0xffffffffffffffffffffffffffffffffffffffff\n      and\n      0xffffffffffffffffffffffffffffffffffffffff\n      and\n      dup2\n      mstore\n      0x20\n      add\n      swap1\n      dup2\n      mstore\n      0x20\n      add\n      0x00\n      keccak256\n      0x00\n        /* \"token.sol\":1959:1987  hasPlayed[msg.sender] = true */\n      0x0100\n      exp\n      dup2\n      sload\n      dup2\n      0xff\n      mul\n      not\n      and\n      swap1\n      dup4\n      iszero\n      iszero\n      mul\n      or\n      swap1\n      sstore\n      pop\n        /* \"token.sol\":2017:2027  msg.sender */\n      caller\n        /* \"token.sol\":2003:2044  QuizCompleted(msg.sender, quizSuccessful) */\n      0xffffffffffffffffffffffffffffffffffffffff\n      and\n      0xc2ea2a896189df63f425d61e8e89a6d9d38aa968303c075d8321f0ec4f60b6f5\n        /* \"token.sol\":2029:2043  quizSuccessful */\n      dup3\n        /* \"token.sol\":2003:2044  QuizCompleted(msg.sender, quizSuccessful) */\n      mload(0x40)\n      tag_47\n      swap2\n      swap1\n      tag_12\n      jump\t// in\n    tag_47:\n      mload(0x40)\n      dup1\n      swap2\n      sub\n      swap1\n      log2\n        /* \"token.sol\":1024:2052  {... */\n      pop\n      pop\n        /* \"token.sol\":972:2052  function playQuiz(string[] memory answers) external {... */\n      pop\n      jump\t// out\n        /* \"token.sol\":631:658  address public tokenAddress */\n    tag_18:\n      0x00\n      dup1\n      sload\n      swap1\n      0x0100\n      exp\n      swap1\n      div\n      0xffffffffffffffffffffffffffffffffffffffff\n      and\n      dup2\n      jump\t// out\n        /* \"token.sol\":665:692  uint256 public rewardAmount */\n    tag_22:\n      sload(0x01)\n      dup2\n      jump\t// out\n        /* \"#utility.yul\":7:82   */\n    tag_48:\n        /* \"#utility.yul\":40:46   */\n      0x00\n        /* \"#utility.yul\":73:75   */\n      0x40\n        /* \"#utility.yul\":67:76   */\n      mload\n        /* \"#utility.yul\":57:76   */\n      swap1\n      pop\n        /* \"#utility.yul\":7:82   */\n      swap1\n      jump\t// out\n        /* \"#utility.yul\":88:205   */\n    tag_49:\n        /* \"#utility.yul\":197:198   */\n      0x00\n        /* \"#utility.yul\":194:195   */\n      dup1\n        /* \"#utility.yul\":187:199   */\n      revert\n        /* \"#utility.yul\":211:328   */\n    tag_50:\n        /* \"#utility.yul\":320:321   */\n      0x00\n        /* \"#utility.yul\":317:318   */\n      dup1\n        /* \"#utility.yul\":310:322   */\n      revert\n        /* \"#utility.yul\":334:460   */\n    tag_51:\n        /* \"#utility.yul\":371:378   */\n      0x00\n        /* \"#utility.yul\":411:453   */\n      0xffffffffffffffffffffffffffffffffffffffff\n        /* \"#utility.yul\":404:409   */\n      dup3\n        /* \"#utility.yul\":400:454   */\n      and\n        /* \"#utility.yul\":389:454   */\n      swap1\n      pop\n        /* \"#utility.yul\":334:460   */\n      swap2\n      swap1\n      pop\n      jump\t// out\n        /* \"#utility.yul\":466:562   */\n    tag_52:\n        /* \"#utility.yul\":503:510   */\n      0x00\n        /* \"#utility.yul\":532:556   */\n      tag_85\n        /* \"#utility.yul\":550:555   */\n      dup3\n        /* \"#utility.yul\":532:556   */\n      tag_51\n      jump\t// in\n    tag_85:\n        /* \"#utility.yul\":521:556   */\n      swap1\n      pop\n        /* \"#utility.yul\":466:562   */\n      swap2\n      swap1\n      pop\n      jump\t// out\n        /* \"#utility.yul\":568:690   */\n    tag_53:\n        /* \"#utility.yul\":641:665   */\n      tag_87\n        /* \"#utility.yul\":659:664   */\n      dup2\n        /* \"#utility.yul\":641:665   */\n      tag_52\n      jump\t// in\n    tag_87:\n        /* \"#utility.yul\":634:639   */\n      dup2\n        /* \"#utility.yul\":631:666   */\n      eq\n        /* \"#utility.yul\":621:684   */\n      tag_88\n      jumpi\n        /* \"#utility.yul\":680:681   */\n      0x00\n        /* \"#utility.yul\":677:678   */\n      dup1\n        /* \"#utility.yul\":670:682   */\n      revert\n        /* \"#utility.yul\":621:684   */\n    tag_88:\n        /* \"#utility.yul\":568:690   */\n      pop\n      jump\t// out\n        /* \"#utility.yul\":696:835   */\n    tag_54:\n        /* \"#utility.yul\":742:747   */\n      0x00\n        /* \"#utility.yul\":780:786   */\n      dup2\n        /* \"#utility.yul\":767:787   */\n      calldataload\n        /* \"#utility.yul\":758:787   */\n      swap1\n      pop\n        /* \"#utility.yul\":796:829   */\n      tag_90\n        /* \"#utility.yul\":823:828   */\n      dup2\n        /* \"#utility.yul\":796:829   */\n      tag_53\n      jump\t// in\n    tag_90:\n        /* \"#utility.yul\":696:835   */\n      swap3\n      swap2\n      pop\n      pop\n      jump\t// out\n        /* \"#utility.yul\":841:1170   */\n    tag_9:\n        /* \"#utility.yul\":900:906   */\n      0x00\n        /* \"#utility.yul\":949:951   */\n      0x20\n        /* \"#utility.yul\":937:946   */\n      dup3\n        /* \"#utility.yul\":928:935   */\n      dup5\n        /* \"#utility.yul\":924:947   */\n      sub\n        /* \"#utility.yul\":920:952   */\n      slt\n        /* \"#utility.yul\":917:1036   */\n      iszero\n      tag_92\n      jumpi\n        /* \"#utility.yul\":955:1034   */\n      tag_93\n      tag_49\n      jump\t// in\n    tag_93:\n        /* \"#utility.yul\":917:1036   */\n    tag_92:\n        /* \"#utility.yul\":1075:1076   */\n      0x00\n        /* \"#utility.yul\":1100:1153   */\n      tag_94\n        /* \"#utility.yul\":1145:1152   */\n      dup5\n        /* \"#utility.yul\":1136:1142   */\n      dup3\n        /* \"#utility.yul\":1125:1134   */\n      dup6\n        /* \"#utility.yul\":1121:1143   */\n      add\n        /* \"#utility.yul\":1100:1153   */\n      tag_54\n      jump\t// in\n    tag_94:\n        /* \"#utility.yul\":1090:1153   */\n      swap2\n      pop\n        /* \"#utility.yul\":1046:1163   */\n      pop\n        /* \"#utility.yul\":841:1170   */\n      swap3\n      swap2\n      pop\n      pop\n      jump\t// out\n        /* \"#utility.yul\":1176:1266   */\n    tag_55:\n        /* \"#utility.yul\":1210:1217   */\n      0x00\n        /* \"#utility.yul\":1253:1258   */\n      dup2\n        /* \"#utility.yul\":1246:1259   */\n      iszero\n        /* \"#utility.yul\":1239:1260   */\n      iszero\n        /* \"#utility.yul\":1228:1260   */\n      swap1\n      pop\n        /* \"#utility.yul\":1176:1266   */\n      swap2\n      swap1\n      pop\n      jump\t// out\n        /* \"#utility.yul\":1272:1381   */\n    tag_56:\n        /* \"#utility.yul\":1353:1374   */\n      tag_97\n        /* \"#utility.yul\":1368:1373   */\n      dup2\n        /* \"#utility.yul\":1353:1374   */\n      tag_55\n      jump\t// in\n    tag_97:\n        /* \"#utility.yul\":1348:1351   */\n      dup3\n        /* \"#utility.yul\":1341:1375   */\n      mstore\n        /* \"#utility.yul\":1272:1381   */\n      pop\n      pop\n      jump\t// out\n        /* \"#utility.yul\":1387:1597   */\n    tag_12:\n        /* \"#utility.yul\":1474:1478   */\n      0x00\n        /* \"#utility.yul\":1512:1514   */\n      0x20\n        /* \"#utility.yul\":1501:1510   */\n      dup3\n        /* \"#utility.yul\":1497:1515   */\n      add\n        /* \"#utility.yul\":1489:1515   */\n      swap1\n      pop\n        /* \"#utility.yul\":1525:1590   */\n      tag_99\n        /* \"#utility.yul\":1587:1588   */\n      0x00\n        /* \"#utility.yul\":1576:1585   */\n      dup4\n        /* \"#utility.yul\":1572:1589   */\n      add\n        /* \"#utility.yul\":1563:1569   */\n      dup5\n        /* \"#utility.yul\":1525:1590   */\n      tag_56\n      jump\t// in\n    tag_99:\n        /* \"#utility.yul\":1387:1597   */\n      swap3\n      swap2\n      pop\n      pop\n      jump\t// out\n        /* \"#utility.yul\":1603:1720   */\n    tag_57:\n        /* \"#utility.yul\":1712:1713   */\n      0x00\n        /* \"#utility.yul\":1709:1710   */\n      dup1\n        /* \"#utility.yul\":1702:1714   */\n      revert\n        /* \"#utility.yul\":1726:1828   */\n    tag_58:\n        /* \"#utility.yul\":1767:1773   */\n      0x00\n        /* \"#utility.yul\":1818:1820   */\n      0x1f\n        /* \"#utility.yul\":1814:1821   */\n      not\n        /* \"#utility.yul\":1809:1811   */\n      0x1f\n        /* \"#utility.yul\":1802:1807   */\n      dup4\n        /* \"#utility.yul\":1798:1812   */\n      add\n        /* \"#utility.yul\":1794:1822   */\n      and\n        /* \"#utility.yul\":1784:1822   */\n      swap1\n      pop\n        /* \"#utility.yul\":1726:1828   */\n      swap2\n      swap1\n      pop\n      jump\t// out\n        /* \"#utility.yul\":1834:2014   */\n    tag_59:\n        /* \"#utility.yul\":1882:1959   */\n      0x4e487b7100000000000000000000000000000000000000000000000000000000\n        /* \"#utility.yul\":1879:1880   */\n      0x00\n        /* \"#utility.yul\":1872:1960   */\n      mstore\n        /* \"#utility.yul\":1979:1983   */\n      0x41\n        /* \"#utility.yul\":1976:1977   */\n      0x04\n        /* \"#utility.yul\":1969:1984   */\n      mstore\n        /* \"#utility.yul\":2003:2007   */\n      0x24\n        /* \"#utility.yul\":2000:2001   */\n      0x00\n        /* \"#utility.yul\":1993:2008   */\n      revert\n        /* \"#utility.yul\":2020:2301   */\n    tag_60:\n        /* \"#utility.yul\":2103:2130   */\n      tag_104\n        /* \"#utility.yul\":2125:2129   */\n      dup3\n        /* \"#utility.yul\":2103:2130   */\n      tag_58\n      jump\t// in\n    tag_104:\n        /* \"#utility.yul\":2095:2101   */\n      dup2\n        /* \"#utility.yul\":2091:2131   */\n      add\n        /* \"#utility.yul\":2233:2239   */\n      dup2\n        /* \"#utility.yul\":2221:2231   */\n      dup2\n        /* \"#utility.yul\":2218:2240   */\n      lt\n        /* \"#utility.yul\":2197:2215   */\n      0xffffffffffffffff\n        /* \"#utility.yul\":2185:2195   */\n      dup3\n        /* \"#utility.yul\":2182:2216   */\n      gt\n        /* \"#utility.yul\":2179:2241   */\n      or\n        /* \"#utility.yul\":2176:2264   */\n      iszero\n      tag_105\n      jumpi\n        /* \"#utility.yul\":2244:2262   */\n      tag_106\n      tag_59\n      jump\t// in\n    tag_106:\n        /* \"#utility.yul\":2176:2264   */\n    tag_105:\n        /* \"#utility.yul\":2284:2294   */\n      dup1\n        /* \"#utility.yul\":2280:2282   */\n      0x40\n        /* \"#utility.yul\":2273:2295   */\n      mstore\n        /* \"#utility.yul\":2063:2301   */\n      pop\n        /* \"#utility.yul\":2020:2301   */\n      pop\n      pop\n      jump\t// out\n        /* \"#utility.yul\":2307:2436   */\n    tag_61:\n        /* \"#utility.yul\":2341:2347   */\n      0x00\n        /* \"#utility.yul\":2368:2388   */\n      tag_108\n      tag_48\n      jump\t// in\n    tag_108:\n        /* \"#utility.yul\":2358:2388   */\n      swap1\n      pop\n        /* \"#utility.yul\":2397:2430   */\n      tag_109\n        /* \"#utility.yul\":2425:2429   */\n      dup3\n        /* \"#utility.yul\":2417:2423   */\n      dup3\n        /* \"#utility.yul\":2397:2430   */\n      tag_60\n      jump\t// in\n    tag_109:\n        /* \"#utility.yul\":2307:2436   */\n      swap2\n      swap1\n      pop\n      jump\t// out\n        /* \"#utility.yul\":2442:2763   */\n    tag_62:\n        /* \"#utility.yul\":2529:2533   */\n      0x00\n        /* \"#utility.yul\":2619:2637   */\n      0xffffffffffffffff\n        /* \"#utility.yul\":2611:2617   */\n      dup3\n        /* \"#utility.yul\":2608:2638   */\n      gt\n        /* \"#utility.yul\":2605:2661   */\n      iszero\n      tag_111\n      jumpi\n        /* \"#utility.yul\":2641:2659   */\n      tag_112\n      tag_59\n      jump\t// in\n    tag_112:\n        /* \"#utility.yul\":2605:2661   */\n    tag_111:\n        /* \"#utility.yul\":2691:2695   */\n      0x20\n        /* \"#utility.yul\":2683:2689   */\n      dup3\n        /* \"#utility.yul\":2679:2696   */\n      mul\n        /* \"#utility.yul\":2671:2696   */\n      swap1\n      pop\n        /* \"#utility.yul\":2751:2755   */\n      0x20\n        /* \"#utility.yul\":2745:2749   */\n      dup2\n        /* \"#utility.yul\":2741:2756   */\n      add\n        /* \"#utility.yul\":2733:2756   */\n      swap1\n      pop\n        /* \"#utility.yul\":2442:2763   */\n      swap2\n      swap1\n      pop\n      jump\t// out\n        /* \"#utility.yul\":2769:2886   */\n    tag_63:\n        /* \"#utility.yul\":2878:2879   */\n      0x00\n        /* \"#utility.yul\":2875:2876   */\n      dup1\n        /* \"#utility.yul\":2868:2880   */\n      revert\n        /* \"#utility.yul\":2892:3009   */\n    tag_64:\n        /* \"#utility.yul\":3001:3002   */\n      0x00\n        /* \"#utility.yul\":2998:2999   */\n      dup1\n        /* \"#utility.yul\":2991:3003   */\n      revert\n        /* \"#utility.yul\":3015:3323   */\n    tag_65:\n        /* \"#utility.yul\":3077:3081   */\n      0x00\n        /* \"#utility.yul\":3167:3185   */\n      0xffffffffffffffff\n        /* \"#utility.yul\":3159:3165   */\n      dup3\n        /* \"#utility.yul\":3156:3186   */\n      gt\n        /* \"#utility.yul\":3153:3209   */\n      iszero\n      tag_116\n      jumpi\n        /* \"#utility.yul\":3189:3207   */\n      tag_117\n      tag_59\n      jump\t// in\n    tag_117:\n        /* \"#utility.yul\":3153:3209   */\n    tag_116:\n        /* \"#utility.yul\":3227:3256   */\n      tag_118\n        /* \"#utility.yul\":3249:3255   */\n      dup3\n        /* \"#utility.yul\":3227:3256   */\n      tag_58\n      jump\t// in\n    tag_118:\n        /* \"#utility.yul\":3219:3256   */\n      swap1\n      pop\n        /* \"#utility.yul\":3311:3315   */\n      0x20\n        /* \"#utility.yul\":3305:3309   */\n      dup2\n        /* \"#utility.yul\":3301:3316   */\n      add\n        /* \"#utility.yul\":3293:3316   */\n      swap1\n      pop\n        /* \"#utility.yul\":3015:3323   */\n      swap2\n      swap1\n      pop\n      jump\t// out\n        /* \"#utility.yul\":3329:3475   */\n    tag_66:\n        /* \"#utility.yul\":3426:3432   */\n      dup3\n        /* \"#utility.yul\":3421:3424   */\n      dup2\n        /* \"#utility.yul\":3416:3419   */\n      dup4\n        /* \"#utility.yul\":3403:3433   */\n      calldatacopy\n        /* \"#utility.yul\":3467:3468   */\n      0x00\n        /* \"#utility.yul\":3458:3464   */\n      dup4\n        /* \"#utility.yul\":3453:3456   */\n      dup4\n        /* \"#utility.yul\":3449:3465   */\n      add\n        /* \"#utility.yul\":3442:3469   */\n      mstore\n        /* \"#utility.yul\":3329:3475   */\n      pop\n      pop\n      pop\n      jump\t// out\n        /* \"#utility.yul\":3481:3906   */\n    tag_67:\n        /* \"#utility.yul\":3559:3564   */\n      0x00\n        /* \"#utility.yul\":3584:3650   */\n      tag_121\n        /* \"#utility.yul\":3600:3649   */\n      tag_122\n        /* \"#utility.yul\":3642:3648   */\n      dup5\n        /* \"#utility.yul\":3600:3649   */\n      tag_65\n      jump\t// in\n    tag_122:\n        /* \"#utility.yul\":3584:3650   */\n      tag_61\n      jump\t// in\n    tag_121:\n        /* \"#utility.yul\":3575:3650   */\n      swap1\n      pop\n        /* \"#utility.yul\":3673:3679   */\n      dup3\n        /* \"#utility.yul\":3666:3671   */\n      dup2\n        /* \"#utility.yul\":3659:3680   */\n      mstore\n        /* \"#utility.yul\":3711:3715   */\n      0x20\n        /* \"#utility.yul\":3704:3709   */\n      dup2\n        /* \"#utility.yul\":3700:3716   */\n      add\n        /* \"#utility.yul\":3749:3752   */\n      dup5\n        /* \"#utility.yul\":3740:3746   */\n      dup5\n        /* \"#utility.yul\":3735:3738   */\n      dup5\n        /* \"#utility.yul\":3731:3747   */\n      add\n        /* \"#utility.yul\":3728:3753   */\n      gt\n        /* \"#utility.yul\":3725:3837   */\n      iszero\n      tag_123\n      jumpi\n        /* \"#utility.yul\":3756:3835   */\n      tag_124\n      tag_64\n      jump\t// in\n    tag_124:\n        /* \"#utility.yul\":3725:3837   */\n    tag_123:\n        /* \"#utility.yul\":3846:3900   */\n      tag_125\n        /* \"#utility.yul\":3893:3899   */\n      dup5\n        /* \"#utility.yul\":3888:3891   */\n      dup3\n        /* \"#utility.yul\":3883:3886   */\n      dup6\n        /* \"#utility.yul\":3846:3900   */\n      tag_66\n      jump\t// in\n    tag_125:\n        /* \"#utility.yul\":3565:3906   */\n      pop\n        /* \"#utility.yul\":3481:3906   */\n      swap4\n      swap3\n      pop\n      pop\n      pop\n      jump\t// out\n        /* \"#utility.yul\":3926:4266   */\n    tag_68:\n        /* \"#utility.yul\":3982:3987   */\n      0x00\n        /* \"#utility.yul\":4031:4034   */\n      dup3\n        /* \"#utility.yul\":4024:4028   */\n      0x1f\n        /* \"#utility.yul\":4016:4022   */\n      dup4\n        /* \"#utility.yul\":4012:4029   */\n      add\n        /* \"#utility.yul\":4008:4035   */\n      slt\n        /* \"#utility.yul\":3998:4120   */\n      tag_127\n      jumpi\n        /* \"#utility.yul\":4039:4118   */\n      tag_128\n      tag_57\n      jump\t// in\n    tag_128:\n        /* \"#utility.yul\":3998:4120   */\n    tag_127:\n        /* \"#utility.yul\":4156:4162   */\n      dup2\n        /* \"#utility.yul\":4143:4163   */\n      calldataload\n        /* \"#utility.yul\":4181:4260   */\n      tag_129\n        /* \"#utility.yul\":4256:4259   */\n      dup5\n        /* \"#utility.yul\":4248:4254   */\n      dup3\n        /* \"#utility.yul\":4241:4245   */\n      0x20\n        /* \"#utility.yul\":4233:4239   */\n      dup7\n        /* \"#utility.yul\":4229:4246   */\n      add\n        /* \"#utility.yul\":4181:4260   */\n      tag_67\n      jump\t// in\n    tag_129:\n        /* \"#utility.yul\":4172:4260   */\n      swap2\n      pop\n        /* \"#utility.yul\":3988:4266   */\n      pop\n        /* \"#utility.yul\":3926:4266   */\n      swap3\n      swap2\n      pop\n      pop\n      jump\t// out\n        /* \"#utility.yul\":4288:5233   */\n    tag_69:\n        /* \"#utility.yul\":4394:4399   */\n      0x00\n        /* \"#utility.yul\":4419:4510   */\n      tag_131\n        /* \"#utility.yul\":4435:4509   */\n      tag_132\n        /* \"#utility.yul\":4502:4508   */\n      dup5\n        /* \"#utility.yul\":4435:4509   */\n      tag_62\n      jump\t// in\n    tag_132:\n        /* \"#utility.yul\":4419:4510   */\n      tag_61\n      jump\t// in\n    tag_131:\n        /* \"#utility.yul\":4410:4510   */\n      swap1\n      pop\n        /* \"#utility.yul\":4530:4535   */\n      dup1\n        /* \"#utility.yul\":4559:4565   */\n      dup4\n        /* \"#utility.yul\":4552:4557   */\n      dup3\n        /* \"#utility.yul\":4545:4566   */\n      mstore\n        /* \"#utility.yul\":4593:4597   */\n      0x20\n        /* \"#utility.yul\":4586:4591   */\n      dup3\n        /* \"#utility.yul\":4582:4598   */\n      add\n        /* \"#utility.yul\":4575:4598   */\n      swap1\n      pop\n        /* \"#utility.yul\":4646:4650   */\n      0x20\n        /* \"#utility.yul\":4638:4644   */\n      dup5\n        /* \"#utility.yul\":4634:4651   */\n      mul\n        /* \"#utility.yul\":4626:4632   */\n      dup4\n        /* \"#utility.yul\":4622:4652   */\n      add\n        /* \"#utility.yul\":4675:4678   */\n      dup6\n        /* \"#utility.yul\":4667:4673   */\n      dup2\n        /* \"#utility.yul\":4664:4679   */\n      gt\n        /* \"#utility.yul\":4661:4783   */\n      iszero\n      tag_133\n      jumpi\n        /* \"#utility.yul\":4694:4773   */\n      tag_134\n      tag_63\n      jump\t// in\n    tag_134:\n        /* \"#utility.yul\":4661:4783   */\n    tag_133:\n        /* \"#utility.yul\":4809:4815   */\n      dup4\n        /* \"#utility.yul\":4792:5227   */\n    tag_135:\n        /* \"#utility.yul\":4826:4832   */\n      dup2\n        /* \"#utility.yul\":4821:4824   */\n      dup2\n        /* \"#utility.yul\":4818:4833   */\n      lt\n        /* \"#utility.yul\":4792:5227   */\n      iszero\n      tag_137\n      jumpi\n        /* \"#utility.yul\":4915:4918   */\n      dup1\n        /* \"#utility.yul\":4902:4919   */\n      calldataload\n        /* \"#utility.yul\":4951:4969   */\n      0xffffffffffffffff\n        /* \"#utility.yul\":4938:4949   */\n      dup2\n        /* \"#utility.yul\":4935:4970   */\n      gt\n        /* \"#utility.yul\":4932:5054   */\n      iszero\n      tag_138\n      jumpi\n        /* \"#utility.yul\":4973:5052   */\n      tag_139\n      tag_57\n      jump\t// in\n    tag_139:\n        /* \"#utility.yul\":4932:5054   */\n    tag_138:\n        /* \"#utility.yul\":5097:5108   */\n      dup1\n        /* \"#utility.yul\":5089:5095   */\n      dup7\n        /* \"#utility.yul\":5085:5109   */\n      add\n        /* \"#utility.yul\":5135:5182   */\n      tag_140\n        /* \"#utility.yul\":5178:5181   */\n      dup10\n        /* \"#utility.yul\":5166:5176   */\n      dup3\n        /* \"#utility.yul\":5135:5182   */\n      tag_68\n      jump\t// in\n    tag_140:\n        /* \"#utility.yul\":5130:5133   */\n      dup6\n        /* \"#utility.yul\":5123:5183   */\n      mstore\n        /* \"#utility.yul\":5212:5216   */\n      0x20\n        /* \"#utility.yul\":5207:5210   */\n      dup6\n        /* \"#utility.yul\":5203:5217   */\n      add\n        /* \"#utility.yul\":5196:5217   */\n      swap5\n      pop\n        /* \"#utility.yul\":4868:5227   */\n      pop\n      pop\n        /* \"#utility.yul\":4852:4856   */\n      0x20\n        /* \"#utility.yul\":4847:4850   */\n      dup2\n        /* \"#utility.yul\":4843:4857   */\n      add\n        /* \"#utility.yul\":4836:4857   */\n      swap1\n      pop\n        /* \"#utility.yul\":4792:5227   */\n      jump(tag_135)\n    tag_137:\n        /* \"#utility.yul\":4796:4817   */\n      pop\n        /* \"#utility.yul\":4400:5233   */\n      pop\n      pop\n        /* \"#utility.yul\":4288:5233   */\n      swap4\n      swap3\n      pop\n      pop\n      pop\n      jump\t// out\n        /* \"#utility.yul\":5255:5645   */\n    tag_70:\n        /* \"#utility.yul\":5336:5341   */\n      0x00\n        /* \"#utility.yul\":5385:5388   */\n      dup3\n        /* \"#utility.yul\":5378:5382   */\n      0x1f\n        /* \"#utility.yul\":5370:5376   */\n      dup4\n        /* \"#utility.yul\":5366:5383   */\n      add\n        /* \"#utility.yul\":5362:5389   */\n      slt\n        /* \"#utility.yul\":5352:5474   */\n      tag_142\n      jumpi\n        /* \"#utility.yul\":5393:5472   */\n      tag_143\n      tag_57\n      jump\t// in\n    tag_143:\n        /* \"#utility.yul\":5352:5474   */\n    tag_142:\n        /* \"#utility.yul\":5510:5516   */\n      dup2\n        /* \"#utility.yul\":5497:5517   */\n      calldataload\n        /* \"#utility.yul\":5535:5639   */\n      tag_144\n        /* \"#utility.yul\":5635:5638   */\n      dup5\n        /* \"#utility.yul\":5627:5633   */\n      dup3\n        /* \"#utility.yul\":5620:5624   */\n      0x20\n        /* \"#utility.yul\":5612:5618   */\n      dup7\n        /* \"#utility.yul\":5608:5625   */\n      add\n        /* \"#utility.yul\":5535:5639   */\n      tag_69\n      jump\t// in\n    tag_144:\n        /* \"#utility.yul\":5526:5639   */\n      swap2\n      pop\n        /* \"#utility.yul\":5342:5645   */\n      pop\n        /* \"#utility.yul\":5255:5645   */\n      swap3\n      swap2\n      pop\n      pop\n      jump\t// out\n        /* \"#utility.yul\":5651:6210   */\n    tag_15:\n        /* \"#utility.yul\":5745:5751   */\n      0x00\n        /* \"#utility.yul\":5794:5796   */\n      0x20\n        /* \"#utility.yul\":5782:5791   */\n      dup3\n        /* \"#utility.yul\":5773:5780   */\n      dup5\n        /* \"#utility.yul\":5769:5792   */\n      sub\n        /* \"#utility.yul\":5765:5797   */\n      slt\n        /* \"#utility.yul\":5762:5881   */\n      iszero\n      tag_146\n      jumpi\n        /* \"#utility.yul\":5800:5879   */\n      tag_147\n      tag_49\n      jump\t// in\n    tag_147:\n        /* \"#utility.yul\":5762:5881   */\n    tag_146:\n        /* \"#utility.yul\":5948:5949   */\n      0x00\n        /* \"#utility.yul\":5937:5946   */\n      dup3\n        /* \"#utility.yul\":5933:5950   */\n      add\n        /* \"#utility.yul\":5920:5951   */\n      calldataload\n        /* \"#utility.yul\":5978:5996   */\n      0xffffffffffffffff\n        /* \"#utility.yul\":5970:5976   */\n      dup2\n        /* \"#utility.yul\":5967:5997   */\n      gt\n        /* \"#utility.yul\":5964:6081   */\n      iszero\n      tag_148\n      jumpi\n        /* \"#utility.yul\":6000:6079   */\n      tag_149\n      tag_50\n      jump\t// in\n    tag_149:\n        /* \"#utility.yul\":5964:6081   */\n    tag_148:\n        /* \"#utility.yul\":6105:6193   */\n      tag_150\n        /* \"#utility.yul\":6185:6192   */\n      dup5\n        /* \"#utility.yul\":6176:6182   */\n      dup3\n        /* \"#utility.yul\":6165:6174   */\n      dup6\n        /* \"#utility.yul\":6161:6183   */\n      add\n        /* \"#utility.yul\":6105:6193   */\n      tag_70\n      jump\t// in\n    tag_150:\n        /* \"#utility.yul\":6095:6193   */\n      swap2\n      pop\n        /* \"#utility.yul\":5891:6203   */\n      pop\n        /* \"#utility.yul\":5651:6210   */\n      swap3\n      swap2\n      pop\n      pop\n      jump\t// out\n        /* \"#utility.yul\":6216:6334   */\n    tag_71:\n        /* \"#utility.yul\":6303:6327   */\n      tag_152\n        /* \"#utility.yul\":6321:6326   */\n      dup2\n        /* \"#utility.yul\":6303:6327   */\n      tag_52\n      jump\t// in\n    tag_152:\n        /* \"#utility.yul\":6298:6301   */\n      dup3\n        /* \"#utility.yul\":6291:6328   */\n      mstore\n        /* \"#utility.yul\":6216:6334   */\n      pop\n      pop\n      jump\t// out\n        /* \"#utility.yul\":6340:6562   */\n    tag_20:\n        /* \"#utility.yul\":6433:6437   */\n      0x00\n        /* \"#utility.yul\":6471:6473   */\n      0x20\n        /* \"#utility.yul\":6460:6469   */\n      dup3\n        /* \"#utility.yul\":6456:6474   */\n      add\n        /* \"#utility.yul\":6448:6474   */\n      swap1\n      pop\n        /* \"#utility.yul\":6484:6555   */\n      tag_154\n        /* \"#utility.yul\":6552:6553   */\n      0x00\n        /* \"#utility.yul\":6541:6550   */\n      dup4\n        /* \"#utility.yul\":6537:6554   */\n      add\n        /* \"#utility.yul\":6528:6534   */\n      dup5\n        /* \"#utility.yul\":6484:6555   */\n      tag_71\n      jump\t// in\n    tag_154:\n        /* \"#utility.yul\":6340:6562   */\n      swap3\n      swap2\n      pop\n      pop\n      jump\t// out\n        /* \"#utility.yul\":6568:6645   */\n    tag_72:\n        /* \"#utility.yul\":6605:6612   */\n      0x00\n        /* \"#utility.yul\":6634:6639   */\n      dup2\n        /* \"#utility.yul\":6623:6639   */\n      swap1\n      pop\n        /* \"#utility.yul\":6568:6645   */\n      swap2\n      swap1\n      pop\n      jump\t// out\n        /* \"#utility.yul\":6651:6769   */\n    tag_73:\n        /* \"#utility.yul\":6738:6762   */\n      tag_157\n        /* \"#utility.yul\":6756:6761   */\n      dup2\n        /* \"#utility.yul\":6738:6762   */\n      tag_72\n      jump\t// in\n    tag_157:\n        /* \"#utility.yul\":6733:6736   */\n      dup3\n        /* \"#utility.yul\":6726:6763   */\n      mstore\n        /* \"#utility.yul\":6651:6769   */\n      pop\n      pop\n      jump\t// out\n        /* \"#utility.yul\":6775:6997   */\n    tag_24:\n        /* \"#utility.yul\":6868:6872   */\n      0x00\n        /* \"#utility.yul\":6906:6908   */\n      0x20\n        /* \"#utility.yul\":6895:6904   */\n      dup3\n        /* \"#utility.yul\":6891:6909   */\n      add\n        /* \"#utility.yul\":6883:6909   */\n      swap1\n      pop\n        /* \"#utility.yul\":6919:6990   */\n      tag_159\n        /* \"#utility.yul\":6987:6988   */\n      0x00\n        /* \"#utility.yul\":6976:6985   */\n      dup4\n        /* \"#utility.yul\":6972:6989   */\n      add\n        /* \"#utility.yul\":6963:6969   */\n      dup5\n        /* \"#utility.yul\":6919:6990   */\n      tag_73\n      jump\t// in\n    tag_159:\n        /* \"#utility.yul\":6775:6997   */\n      swap3\n      swap2\n      pop\n      pop\n      jump\t// out\n        /* \"#utility.yul\":7003:7172   */\n    tag_74:\n        /* \"#utility.yul\":7087:7098   */\n      0x00\n        /* \"#utility.yul\":7121:7127   */\n      dup3\n        /* \"#utility.yul\":7116:7119   */\n      dup3\n        /* \"#utility.yul\":7109:7128   */\n      mstore\n        /* \"#utility.yul\":7161:7165   */\n      0x20\n        /* \"#utility.yul\":7156:7159   */\n      dup3\n        /* \"#utility.yul\":7152:7166   */\n      add\n        /* \"#utility.yul\":7137:7166   */\n      swap1\n      pop\n        /* \"#utility.yul\":7003:7172   */\n      swap3\n      swap2\n      pop\n      pop\n      jump\t// out\n        /* \"#utility.yul\":7178:7351   */\n    tag_75:\n        /* \"#utility.yul\":7318:7343   */\n      0x416c726561647920706c6179656420746865207175697a000000000000000000\n        /* \"#utility.yul\":7314:7315   */\n      0x00\n        /* \"#utility.yul\":7306:7312   */\n      dup3\n        /* \"#utility.yul\":7302:7316   */\n      add\n        /* \"#utility.yul\":7295:7344   */\n      mstore\n        /* \"#utility.yul\":7178:7351   */\n      pop\n      jump\t// out\n        /* \"#utility.yul\":7357:7723   */\n    tag_76:\n        /* \"#utility.yul\":7499:7502   */\n      0x00\n        /* \"#utility.yul\":7520:7587   */\n      tag_163\n        /* \"#utility.yul\":7584:7586   */\n      0x17\n        /* \"#utility.yul\":7579:7582   */\n      dup4\n        /* \"#utility.yul\":7520:7587   */\n      tag_74\n      jump\t// in\n    tag_163:\n        /* \"#utility.yul\":7513:7587   */\n      swap2\n      pop\n        /* \"#utility.yul\":7596:7689   */\n      tag_164\n        /* \"#utility.yul\":7685:7688   */\n      dup3\n        /* \"#utility.yul\":7596:7689   */\n      tag_75\n      jump\t// in\n    tag_164:\n        /* \"#utility.yul\":7714:7716   */\n      0x20\n        /* \"#utility.yul\":7709:7712   */\n      dup3\n        /* \"#utility.yul\":7705:7717   */\n      add\n        /* \"#utility.yul\":7698:7717   */\n      swap1\n      pop\n        /* \"#utility.yul\":7357:7723   */\n      swap2\n      swap1\n      pop\n      jump\t// out\n        /* \"#utility.yul\":7729:8148   */\n    tag_28:\n        /* \"#utility.yul\":7895:7899   */\n      0x00\n        /* \"#utility.yul\":7933:7935   */\n      0x20\n        /* \"#utility.yul\":7922:7931   */\n      dup3\n        /* \"#utility.yul\":7918:7936   */\n      add\n        /* \"#utility.yul\":7910:7936   */\n      swap1\n      pop\n        /* \"#utility.yul\":7982:7991   */\n      dup2\n        /* \"#utility.yul\":7976:7980   */\n      dup2\n        /* \"#utility.yul\":7972:7992   */\n      sub\n        /* \"#utility.yul\":7968:7969   */\n      0x00\n        /* \"#utility.yul\":7957:7966   */\n      dup4\n        /* \"#utility.yul\":7953:7970   */\n      add\n        /* \"#utility.yul\":7946:7993   */\n      mstore\n        /* \"#utility.yul\":8010:8141   */\n      tag_166\n        /* \"#utility.yul\":8136:8140   */\n      dup2\n        /* \"#utility.yul\":8010:8141   */\n      tag_76\n      jump\t// in\n    tag_166:\n        /* \"#utility.yul\":8002:8141   */\n      swap1\n      pop\n        /* \"#utility.yul\":7729:8148   */\n      swap2\n      swap1\n      pop\n      jump\t// out\n        /* \"#utility.yul\":8154:8377   */\n    tag_77:\n        /* \"#utility.yul\":8294:8328   */\n      0x496e636f7272656374206e756d626572206f6620616e73776572732070726f76\n        /* \"#utility.yul\":8290:8291   */\n      0x00\n        /* \"#utility.yul\":8282:8288   */\n      dup3\n        /* \"#utility.yul\":8278:8292   */\n      add\n        /* \"#utility.yul\":8271:8329   */\n      mstore\n        /* \"#utility.yul\":8363:8369   */\n      0x6964656400000000000000000000000000000000000000000000000000000000\n        /* \"#utility.yul\":8358:8360   */\n      0x20\n        /* \"#utility.yul\":8350:8356   */\n      dup3\n        /* \"#utility.yul\":8346:8361   */\n      add\n        /* \"#utility.yul\":8339:8370   */\n      mstore\n        /* \"#utility.yul\":8154:8377   */\n      pop\n      jump\t// out\n        /* \"#utility.yul\":8383:8749   */\n    tag_78:\n        /* \"#utility.yul\":8525:8528   */\n      0x00\n        /* \"#utility.yul\":8546:8613   */\n      tag_169\n        /* \"#utility.yul\":8610:8612   */\n      0x24\n        /* \"#utility.yul\":8605:8608   */\n      dup4\n        /* \"#utility.yul\":8546:8613   */\n      tag_74\n      jump\t// in\n    tag_169:\n        /* \"#utility.yul\":8539:8613   */\n      swap2\n      pop\n        /* \"#utility.yul\":8622:8715   */\n      tag_170\n        /* \"#utility.yul\":8711:8714   */\n      dup3\n        /* \"#utility.yul\":8622:8715   */\n      tag_77\n      jump\t// in\n    tag_170:\n        /* \"#utility.yul\":8740:8742   */\n      0x40\n        /* \"#utility.yul\":8735:8738   */\n      dup3\n        /* \"#utility.yul\":8731:8743   */\n      add\n        /* \"#utility.yul\":8724:8743   */\n      swap1\n      pop\n        /* \"#utility.yul\":8383:8749   */\n      swap2\n      swap1\n      pop\n      jump\t// out\n        /* \"#utility.yul\":8755:9174   */\n    tag_31:\n        /* \"#utility.yul\":8921:8925   */\n      0x00\n        /* \"#utility.yul\":8959:8961   */\n      0x20\n        /* \"#utility.yul\":8948:8957   */\n      dup3\n        /* \"#utility.yul\":8944:8962   */\n      add\n        /* \"#utility.yul\":8936:8962   */\n      swap1\n      pop\n        /* \"#utility.yul\":9008:9017   */\n      dup2\n        /* \"#utility.yul\":9002:9006   */\n      dup2\n        /* \"#utility.yul\":8998:9018   */\n      sub\n        /* \"#utility.yul\":8994:8995   */\n      0x00\n        /* \"#utility.yul\":8983:8992   */\n      dup4\n        /* \"#utility.yul\":8979:8996   */\n      add\n        /* \"#utility.yul\":8972:9019   */\n      mstore\n        /* \"#utility.yul\":9036:9167   */\n      tag_172\n        /* \"#utility.yul\":9162:9166   */\n      dup2\n        /* \"#utility.yul\":9036:9167   */\n      tag_78\n      jump\t// in\n    tag_172:\n        /* \"#utility.yul\":9028:9167   */\n      swap1\n      pop\n        /* \"#utility.yul\":8755:9174   */\n      swap2\n      swap1\n      pop\n      jump\t// out\n        /* \"#utility.yul\":9180:9360   */\n    tag_37:\n        /* \"#utility.yul\":9228:9305   */\n      0x4e487b7100000000000000000000000000000000000000000000000000000000\n        /* \"#utility.yul\":9225:9226   */\n      0x00\n        /* \"#utility.yul\":9218:9306   */\n      mstore\n        /* \"#utility.yul\":9325:9329   */\n      0x32\n        /* \"#utility.yul\":9322:9323   */\n      0x04\n        /* \"#utility.yul\":9315:9330   */\n      mstore\n        /* \"#utility.yul\":9349:9353   */\n      0x24\n        /* \"#utility.yul\":9346:9347   */\n      0x00\n        /* \"#utility.yul\":9339:9354   */\n      revert\n        /* \"#utility.yul\":9366:9698   */\n    tag_43:\n        /* \"#utility.yul\":9487:9491   */\n      0x00\n        /* \"#utility.yul\":9525:9527   */\n      0x40\n        /* \"#utility.yul\":9514:9523   */\n      dup3\n        /* \"#utility.yul\":9510:9528   */\n      add\n        /* \"#utility.yul\":9502:9528   */\n      swap1\n      pop\n        /* \"#utility.yul\":9538:9609   */\n      tag_175\n        /* \"#utility.yul\":9606:9607   */\n      0x00\n        /* \"#utility.yul\":9595:9604   */\n      dup4\n        /* \"#utility.yul\":9591:9608   */\n      add\n        /* \"#utility.yul\":9582:9588   */\n      dup6\n        /* \"#utility.yul\":9538:9609   */\n      tag_71\n      jump\t// in\n    tag_175:\n        /* \"#utility.yul\":9619:9691   */\n      tag_176\n        /* \"#utility.yul\":9687:9689   */\n      0x20\n        /* \"#utility.yul\":9676:9685   */\n      dup4\n        /* \"#utility.yul\":9672:9690   */\n      add\n        /* \"#utility.yul\":9663:9669   */\n      dup5\n        /* \"#utility.yul\":9619:9691   */\n      tag_73\n      jump\t// in\n    tag_176:\n        /* \"#utility.yul\":9366:9698   */\n      swap4\n      swap3\n      pop\n      pop\n      pop\n      jump\t// out\n\n    auxdata: 0xa26469706673582212202186d5be5fa378227c79d1b2786f9e1cf6987a8b5f315970e21cec701b83d37d64736f6c63430008160033\n}\n",
				"bytecode": {
					"linkReferences": {},
					"object": "608060405234801561000f575f80fd5b50604051610b38380380610b388339818101604052810190610031919061010f565b815f806101000a81548173ffffffffffffffffffffffffffffffffffffffff021916908373ffffffffffffffffffffffffffffffffffffffff16021790555080600181905550505061014d565b5f80fd5b5f73ffffffffffffffffffffffffffffffffffffffff82169050919050565b5f6100ab82610082565b9050919050565b6100bb816100a1565b81146100c5575f80fd5b50565b5f815190506100d6816100b2565b92915050565b5f819050919050565b6100ee816100dc565b81146100f8575f80fd5b50565b5f81519050610109816100e5565b92915050565b5f80604083850312156101255761012461007e565b5b5f610132858286016100c8565b9250506020610143858286016100fb565b9150509250929050565b6109de8061015a5f395ff3fe608060405234801561000f575f80fd5b506004361061004a575f3560e01c806332d0bbe31461004e5780636e04721f1461007e5780639d76ea581461009a578063f7b2a7be146100b8575b5f80fd5b61006860048036038101906100639190610532565b6100d6565b6040516100759190610577565b60405180910390f35b610098600480360381019061009391906107ae565b6100f3565b005b6100a261049e565b6040516100af9190610804565b60405180910390f35b6100c06104c1565b6040516100cd9190610835565b60405180910390f35b6002602052805f5260405f205f915054906101000a900460ff1681565b60025f3373ffffffffffffffffffffffffffffffffffffffff1673ffffffffffffffffffffffffffffffffffffffff1681526020019081526020015f205f9054906101000a900460ff161561017d576040517f08c379a0000000000000000000000000000000000000000000000000000000008152600401610174906108a8565b60405180910390fd5b60058151146101c1576040517f08c379a00000000000000000000000000000000000000000000000000000000081526004016101b890610936565b60405180910390fd5b5f6040518060a001604052806040518060400160405280600181526020017f410000000000000000000000000000000000000000000000000000000000000081525081526020016040518060400160405280600181526020017f420000000000000000000000000000000000000000000000000000000000000081525081526020016040518060400160405280600181526020017f430000000000000000000000000000000000000000000000000000000000000081525081526020016040518060400160405280600181526020017f440000000000000000000000000000000000000000000000000000000000000081525081526020016040518060400160405280600181526020017f450000000000000000000000000000000000000000000000000000000000000081525081525090505f600190505f5b600581101561035f5782816005811061031757610316610954565b5b60200201518051906020012084828151811061033657610335610954565b5b60200260200101518051906020012014610352575f915061035f565b80806001019150506102fb565b5080156103f6575f805f9054906101000a900473ffffffffffffffffffffffffffffffffffffffff1690508073ffffffffffffffffffffffffffffffffffffffff166340c10f19336001546040518363ffffffff1660e01b81526004016103c7929190610981565b5f604051808303815f87803b1580156103de575f80fd5b505af11580156103f0573d5f803e3d5ffd5b50505050505b600160025f3373ffffffffffffffffffffffffffffffffffffffff1673ffffffffffffffffffffffffffffffffffffffff1681526020019081526020015f205f6101000a81548160ff0219169083151502179055503373ffffffffffffffffffffffffffffffffffffffff167fc2ea2a896189df63f425d61e8e89a6d9d38aa968303c075d8321f0ec4f60b6f5826040516104919190610577565b60405180910390a2505050565b5f8054906101000a900473ffffffffffffffffffffffffffffffffffffffff1681565b60015481565b5f604051905090565b5f80fd5b5f80fd5b5f73ffffffffffffffffffffffffffffffffffffffff82169050919050565b5f610501826104d8565b9050919050565b610511816104f7565b811461051b575f80fd5b50565b5f8135905061052c81610508565b92915050565b5f60208284031215610547576105466104d0565b5b5f6105548482850161051e565b91505092915050565b5f8115159050919050565b6105718161055d565b82525050565b5f60208201905061058a5f830184610568565b92915050565b5f80fd5b5f601f19601f8301169050919050565b7f4e487b71000000000000000000000000000000000000000000000000000000005f52604160045260245ffd5b6105da82610594565b810181811067ffffffffffffffff821117156105f9576105f86105a4565b5b80604052505050565b5f61060b6104c7565b905061061782826105d1565b919050565b5f67ffffffffffffffff821115610636576106356105a4565b5b602082029050602081019050919050565b5f80fd5b5f80fd5b5f67ffffffffffffffff821115610669576106686105a4565b5b61067282610594565b9050602081019050919050565b828183375f83830152505050565b5f61069f61069a8461064f565b610602565b9050828152602081018484840111156106bb576106ba61064b565b5b6106c684828561067f565b509392505050565b5f82601f8301126106e2576106e1610590565b5b81356106f284826020860161068d565b91505092915050565b5f61070d6107088461061c565b610602565b905080838252602082019050602084028301858111156107305761072f610647565b5b835b8181101561077757803567ffffffffffffffff81111561075557610754610590565b5b80860161076289826106ce565b85526020850194505050602081019050610732565b5050509392505050565b5f82601f83011261079557610794610590565b5b81356107a58482602086016106fb565b91505092915050565b5f602082840312156107c3576107c26104d0565b5b5f82013567ffffffffffffffff8111156107e0576107df6104d4565b5b6107ec84828501610781565b91505092915050565b6107fe816104f7565b82525050565b5f6020820190506108175f8301846107f5565b92915050565b5f819050919050565b61082f8161081d565b82525050565b5f6020820190506108485f830184610826565b92915050565b5f82825260208201905092915050565b7f416c726561647920706c6179656420746865207175697a0000000000000000005f82015250565b5f61089260178361084e565b915061089d8261085e565b602082019050919050565b5f6020820190508181035f8301526108bf81610886565b9050919050565b7f496e636f7272656374206e756d626572206f6620616e73776572732070726f765f8201527f6964656400000000000000000000000000000000000000000000000000000000602082015250565b5f61092060248361084e565b915061092b826108c6565b604082019050919050565b5f6020820190508181035f83015261094d81610914565b9050919050565b7f4e487b71000000000000000000000000000000000000000000000000000000005f52603260045260245ffd5b5f6040820190506109945f8301856107f5565b6109a16020830184610826565b939250505056fea26469706673582212202186d5be5fa378227c79d1b2786f9e1cf6987a8b5f315970e21cec701b83d37d64736f6c63430008160033",
					"opcodes": "PUSH1 0x80 PUSH1 0x40 MSTORE CALLVALUE DUP1 ISZERO PUSH2 0xF JUMPI PUSH0 DUP1 REVERT JUMPDEST POP PUSH1 0x40 MLOAD PUSH2 0xB38 CODESIZE SUB DUP1 PUSH2 0xB38 DUP4 CODECOPY DUP2 DUP2 ADD PUSH1 0x40 MSTORE DUP2 ADD SWAP1 PUSH2 0x31 SWAP2 SWAP1 PUSH2 0x10F JUMP JUMPDEST DUP2 PUSH0 DUP1 PUSH2 0x100 EXP DUP2 SLOAD DUP2 PUSH20 0xFFFFFFFFFFFFFFFFFFFFFFFFFFFFFFFFFFFFFFFF MUL NOT AND SWAP1 DUP4 PUSH20 0xFFFFFFFFFFFFFFFFFFFFFFFFFFFFFFFFFFFFFFFF AND MUL OR SWAP1 SSTORE POP DUP1 PUSH1 0x1 DUP2 SWAP1 SSTORE POP POP POP PUSH2 0x14D JUMP JUMPDEST PUSH0 DUP1 REVERT JUMPDEST PUSH0 PUSH20 0xFFFFFFFFFFFFFFFFFFFFFFFFFFFFFFFFFFFFFFFF DUP3 AND SWAP1 POP SWAP2 SWAP1 POP JUMP JUMPDEST PUSH0 PUSH2 0xAB DUP3 PUSH2 0x82 JUMP JUMPDEST SWAP1 POP SWAP2 SWAP1 POP JUMP JUMPDEST PUSH2 0xBB DUP2 PUSH2 0xA1 JUMP JUMPDEST DUP2 EQ PUSH2 0xC5 JUMPI PUSH0 DUP1 REVERT JUMPDEST POP JUMP JUMPDEST PUSH0 DUP2 MLOAD SWAP1 POP PUSH2 0xD6 DUP2 PUSH2 0xB2 JUMP JUMPDEST SWAP3 SWAP2 POP POP JUMP JUMPDEST PUSH0 DUP2 SWAP1 POP SWAP2 SWAP1 POP JUMP JUMPDEST PUSH2 0xEE DUP2 PUSH2 0xDC JUMP JUMPDEST DUP2 EQ PUSH2 0xF8 JUMPI PUSH0 DUP1 REVERT JUMPDEST POP JUMP JUMPDEST PUSH0 DUP2 MLOAD SWAP1 POP PUSH2 0x109 DUP2 PUSH2 0xE5 JUMP JUMPDEST SWAP3 SWAP2 POP POP JUMP JUMPDEST PUSH0 DUP1 PUSH1 0x40 DUP4 DUP6 SUB SLT ISZERO PUSH2 0x125 JUMPI PUSH2 0x124 PUSH2 0x7E JUMP JUMPDEST JUMPDEST PUSH0 PUSH2 0x132 DUP6 DUP3 DUP7 ADD PUSH2 0xC8 JUMP JUMPDEST SWAP3 POP POP PUSH1 0x20 PUSH2 0x143 DUP6 DUP3 DUP7 ADD PUSH2 0xFB JUMP JUMPDEST SWAP2 POP POP SWAP3 POP SWAP3 SWAP1 POP JUMP JUMPDEST PUSH2 0x9DE DUP1 PUSH2 0x15A PUSH0 CODECOPY PUSH0 RETURN INVALID PUSH1 0x80 PUSH1 0x40 MSTORE CALLVALUE DUP1 ISZERO PUSH2 0xF JUMPI PUSH0 DUP1 REVERT JUMPDEST POP PUSH1 0x4 CALLDATASIZE LT PUSH2 0x4A JUMPI PUSH0 CALLDATALOAD PUSH1 0xE0 SHR DUP1 PUSH4 0x32D0BBE3 EQ PUSH2 0x4E JUMPI DUP1 PUSH4 0x6E04721F EQ PUSH2 0x7E JUMPI DUP1 PUSH4 0x9D76EA58 EQ PUSH2 0x9A JUMPI DUP1 PUSH4 0xF7B2A7BE EQ PUSH2 0xB8 JUMPI JUMPDEST PUSH0 DUP1 REVERT JUMPDEST PUSH2 0x68 PUSH1 0x4 DUP1 CALLDATASIZE SUB DUP2 ADD SWAP1 PUSH2 0x63 SWAP2 SWAP1 PUSH2 0x532 JUMP JUMPDEST PUSH2 0xD6 JUMP JUMPDEST PUSH1 0x40 MLOAD PUSH2 0x75 SWAP2 SWAP1 PUSH2 0x577 JUMP JUMPDEST PUSH1 0x40 MLOAD DUP1 SWAP2 SUB SWAP1 RETURN JUMPDEST PUSH2 0x98 PUSH1 0x4 DUP1 CALLDATASIZE SUB DUP2 ADD SWAP1 PUSH2 0x93 SWAP2 SWAP1 PUSH2 0x7AE JUMP JUMPDEST PUSH2 0xF3 JUMP JUMPDEST STOP JUMPDEST PUSH2 0xA2 PUSH2 0x49E JUMP JUMPDEST PUSH1 0x40 MLOAD PUSH2 0xAF SWAP2 SWAP1 PUSH2 0x804 JUMP JUMPDEST PUSH1 0x40 MLOAD DUP1 SWAP2 SUB SWAP1 RETURN JUMPDEST PUSH2 0xC0 PUSH2 0x4C1 JUMP JUMPDEST PUSH1 0x40 MLOAD PUSH2 0xCD SWAP2 SWAP1 PUSH2 0x835 JUMP JUMPDEST PUSH1 0x40 MLOAD DUP1 SWAP2 SUB SWAP1 RETURN JUMPDEST PUSH1 0x2 PUSH1 0x20 MSTORE DUP1 PUSH0 MSTORE PUSH1 0x40 PUSH0 KECCAK256 PUSH0 SWAP2 POP SLOAD SWAP1 PUSH2 0x100 EXP SWAP1 DIV PUSH1 0xFF AND DUP2 JUMP JUMPDEST PUSH1 0x2 PUSH0 CALLER PUSH20 0xFFFFFFFFFFFFFFFFFFFFFFFFFFFFFFFFFFFFFFFF AND PUSH20 0xFFFFFFFFFFFFFFFFFFFFFFFFFFFFFFFFFFFFFFFF AND DUP2 MSTORE PUSH1 0x20 ADD SWAP1 DUP2 MSTORE PUSH1 0x20 ADD PUSH0 KECCAK256 PUSH0 SWAP1 SLOAD SWAP1 PUSH2 0x100 EXP SWAP1 DIV PUSH1 0xFF AND ISZERO PUSH2 0x17D JUMPI PUSH1 0x40 MLOAD PUSH32 0x8C379A000000000000000000000000000000000000000000000000000000000 DUP2 MSTORE PUSH1 0x4 ADD PUSH2 0x174 SWAP1 PUSH2 0x8A8 JUMP JUMPDEST PUSH1 0x40 MLOAD DUP1 SWAP2 SUB SWAP1 REVERT JUMPDEST PUSH1 0x5 DUP2 MLOAD EQ PUSH2 0x1C1 JUMPI PUSH1 0x40 MLOAD PUSH32 0x8C379A000000000000000000000000000000000000000000000000000000000 DUP2 MSTORE PUSH1 0x4 ADD PUSH2 0x1B8 SWAP1 PUSH2 0x936 JUMP JUMPDEST PUSH1 0x40 MLOAD DUP1 SWAP2 SUB SWAP1 REVERT JUMPDEST PUSH0 PUSH1 0x40 MLOAD DUP1 PUSH1 0xA0 ADD PUSH1 0x40 MSTORE DUP1 PUSH1 0x40 MLOAD DUP1 PUSH1 0x40 ADD PUSH1 0x40 MSTORE DUP1 PUSH1 0x1 DUP2 MSTORE PUSH1 0x20 ADD PUSH32 0x4100000000000000000000000000000000000000000000000000000000000000 DUP2 MSTORE POP DUP2 MSTORE PUSH1 0x20 ADD PUSH1 0x40 MLOAD DUP1 PUSH1 0x40 ADD PUSH1 0x40 MSTORE DUP1 PUSH1 0x1 DUP2 MSTORE PUSH1 0x20 ADD PUSH32 0x4200000000000000000000000000000000000000000000000000000000000000 DUP2 MSTORE POP DUP2 MSTORE PUSH1 0x20 ADD PUSH1 0x40 MLOAD DUP1 PUSH1 0x40 ADD PUSH1 0x40 MSTORE DUP1 PUSH1 0x1 DUP2 MSTORE PUSH1 0x20 ADD PUSH32 0x4300000000000000000000000000000000000000000000000000000000000000 DUP2 MSTORE POP DUP2 MSTORE PUSH1 0x20 ADD PUSH1 0x40 MLOAD DUP1 PUSH1 0x40 ADD PUSH1 0x40 MSTORE DUP1 PUSH1 0x1 DUP2 MSTORE PUSH1 0x20 ADD PUSH32 0x4400000000000000000000000000000000000000000000000000000000000000 DUP2 MSTORE POP DUP2 MSTORE PUSH1 0x20 ADD PUSH1 0x40 MLOAD DUP1 PUSH1 0x40 ADD PUSH1 0x40 MSTORE DUP1 PUSH1 0x1 DUP2 MSTORE PUSH1 0x20 ADD PUSH32 0x4500000000000000000000000000000000000000000000000000000000000000 DUP2 MSTORE POP DUP2 MSTORE POP SWAP1 POP PUSH0 PUSH1 0x1 SWAP1 POP PUSH0 JUMPDEST PUSH1 0x5 DUP2 LT ISZERO PUSH2 0x35F JUMPI DUP3 DUP2 PUSH1 0x5 DUP2 LT PUSH2 0x317 JUMPI PUSH2 0x316 PUSH2 0x954 JUMP JUMPDEST JUMPDEST PUSH1 0x20 MUL ADD MLOAD DUP1 MLOAD SWAP1 PUSH1 0x20 ADD KECCAK256 DUP5 DUP3 DUP2 MLOAD DUP2 LT PUSH2 0x336 JUMPI PUSH2 0x335 PUSH2 0x954 JUMP JUMPDEST JUMPDEST PUSH1 0x20 MUL PUSH1 0x20 ADD ADD MLOAD DUP1 MLOAD SWAP1 PUSH1 0x20 ADD KECCAK256 EQ PUSH2 0x352 JUMPI PUSH0 SWAP2 POP PUSH2 0x35F JUMP JUMPDEST DUP1 DUP1 PUSH1 0x1 ADD SWAP2 POP POP PUSH2 0x2FB JUMP JUMPDEST POP DUP1 ISZERO PUSH2 0x3F6 JUMPI PUSH0 DUP1 PUSH0 SWAP1 SLOAD SWAP1 PUSH2 0x100 EXP SWAP1 DIV PUSH20 0xFFFFFFFFFFFFFFFFFFFFFFFFFFFFFFFFFFFFFFFF AND SWAP1 POP DUP1 PUSH20 0xFFFFFFFFFFFFFFFFFFFFFFFFFFFFFFFFFFFFFFFF AND PUSH4 0x40C10F19 CALLER PUSH1 0x1 SLOAD PUSH1 0x40 MLOAD DUP4 PUSH4 0xFFFFFFFF AND PUSH1 0xE0 SHL DUP2 MSTORE PUSH1 0x4 ADD PUSH2 0x3C7 SWAP3 SWAP2 SWAP1 PUSH2 0x981 JUMP JUMPDEST PUSH0 PUSH1 0x40 MLOAD DUP1 DUP4 SUB DUP2 PUSH0 DUP8 DUP1 EXTCODESIZE ISZERO DUP1 ISZERO PUSH2 0x3DE JUMPI PUSH0 DUP1 REVERT JUMPDEST POP GAS CALL ISZERO DUP1 ISZERO PUSH2 0x3F0 JUMPI RETURNDATASIZE PUSH0 DUP1 RETURNDATACOPY RETURNDATASIZE PUSH0 REVERT JUMPDEST POP POP POP POP POP JUMPDEST PUSH1 0x1 PUSH1 0x2 PUSH0 CALLER PUSH20 0xFFFFFFFFFFFFFFFFFFFFFFFFFFFFFFFFFFFFFFFF AND PUSH20 0xFFFFFFFFFFFFFFFFFFFFFFFFFFFFFFFFFFFFFFFF AND DUP2 MSTORE PUSH1 0x20 ADD SWAP1 DUP2 MSTORE PUSH1 0x20 ADD PUSH0 KECCAK256 PUSH0 PUSH2 0x100 EXP DUP2 SLOAD DUP2 PUSH1 0xFF MUL NOT AND SWAP1 DUP4 ISZERO ISZERO MUL OR SWAP1 SSTORE POP CALLER PUSH20 0xFFFFFFFFFFFFFFFFFFFFFFFFFFFFFFFFFFFFFFFF AND PUSH32 0xC2EA2A896189DF63F425D61E8E89A6D9D38AA968303C075D8321F0EC4F60B6F5 DUP3 PUSH1 0x40 MLOAD PUSH2 0x491 SWAP2 SWAP1 PUSH2 0x577 JUMP JUMPDEST PUSH1 0x40 MLOAD DUP1 SWAP2 SUB SWAP1 LOG2 POP POP POP JUMP JUMPDEST PUSH0 DUP1 SLOAD SWAP1 PUSH2 0x100 EXP SWAP1 DIV PUSH20 0xFFFFFFFFFFFFFFFFFFFFFFFFFFFFFFFFFFFFFFFF AND DUP2 JUMP JUMPDEST PUSH1 0x1 SLOAD DUP2 JUMP JUMPDEST PUSH0 PUSH1 0x40 MLOAD SWAP1 POP SWAP1 JUMP JUMPDEST PUSH0 DUP1 REVERT JUMPDEST PUSH0 DUP1 REVERT JUMPDEST PUSH0 PUSH20 0xFFFFFFFFFFFFFFFFFFFFFFFFFFFFFFFFFFFFFFFF DUP3 AND SWAP1 POP SWAP2 SWAP1 POP JUMP JUMPDEST PUSH0 PUSH2 0x501 DUP3 PUSH2 0x4D8 JUMP JUMPDEST SWAP1 POP SWAP2 SWAP1 POP JUMP JUMPDEST PUSH2 0x511 DUP2 PUSH2 0x4F7 JUMP JUMPDEST DUP2 EQ PUSH2 0x51B JUMPI PUSH0 DUP1 REVERT JUMPDEST POP JUMP JUMPDEST PUSH0 DUP2 CALLDATALOAD SWAP1 POP PUSH2 0x52C DUP2 PUSH2 0x508 JUMP JUMPDEST SWAP3 SWAP2 POP POP JUMP JUMPDEST PUSH0 PUSH1 0x20 DUP3 DUP5 SUB SLT ISZERO PUSH2 0x547 JUMPI PUSH2 0x546 PUSH2 0x4D0 JUMP JUMPDEST JUMPDEST PUSH0 PUSH2 0x554 DUP5 DUP3 DUP6 ADD PUSH2 0x51E JUMP JUMPDEST SWAP2 POP POP SWAP3 SWAP2 POP POP JUMP JUMPDEST PUSH0 DUP2 ISZERO ISZERO SWAP1 POP SWAP2 SWAP1 POP JUMP JUMPDEST PUSH2 0x571 DUP2 PUSH2 0x55D JUMP JUMPDEST DUP3 MSTORE POP POP JUMP JUMPDEST PUSH0 PUSH1 0x20 DUP3 ADD SWAP1 POP PUSH2 0x58A PUSH0 DUP4 ADD DUP5 PUSH2 0x568 JUMP JUMPDEST SWAP3 SWAP2 POP POP JUMP JUMPDEST PUSH0 DUP1 REVERT JUMPDEST PUSH0 PUSH1 0x1F NOT PUSH1 0x1F DUP4 ADD AND SWAP1 POP SWAP2 SWAP1 POP JUMP JUMPDEST PUSH32 0x4E487B7100000000000000000000000000000000000000000000000000000000 PUSH0 MSTORE PUSH1 0x41 PUSH1 0x4 MSTORE PUSH1 0x24 PUSH0 REVERT JUMPDEST PUSH2 0x5DA DUP3 PUSH2 0x594 JUMP JUMPDEST DUP2 ADD DUP2 DUP2 LT PUSH8 0xFFFFFFFFFFFFFFFF DUP3 GT OR ISZERO PUSH2 0x5F9 JUMPI PUSH2 0x5F8 PUSH2 0x5A4 JUMP JUMPDEST JUMPDEST DUP1 PUSH1 0x40 MSTORE POP POP POP JUMP JUMPDEST PUSH0 PUSH2 0x60B PUSH2 0x4C7 JUMP JUMPDEST SWAP1 POP PUSH2 0x617 DUP3 DUP3 PUSH2 0x5D1 JUMP JUMPDEST SWAP2 SWAP1 POP JUMP JUMPDEST PUSH0 PUSH8 0xFFFFFFFFFFFFFFFF DUP3 GT ISZERO PUSH2 0x636 JUMPI PUSH2 0x635 PUSH2 0x5A4 JUMP JUMPDEST JUMPDEST PUSH1 0x20 DUP3 MUL SWAP1 POP PUSH1 0x20 DUP2 ADD SWAP1 POP SWAP2 SWAP1 POP JUMP JUMPDEST PUSH0 DUP1 REVERT JUMPDEST PUSH0 DUP1 REVERT JUMPDEST PUSH0 PUSH8 0xFFFFFFFFFFFFFFFF DUP3 GT ISZERO PUSH2 0x669 JUMPI PUSH2 0x668 PUSH2 0x5A4 JUMP JUMPDEST JUMPDEST PUSH2 0x672 DUP3 PUSH2 0x594 JUMP JUMPDEST SWAP1 POP PUSH1 0x20 DUP2 ADD SWAP1 POP SWAP2 SWAP1 POP JUMP JUMPDEST DUP3 DUP2 DUP4 CALLDATACOPY PUSH0 DUP4 DUP4 ADD MSTORE POP POP POP JUMP JUMPDEST PUSH0 PUSH2 0x69F PUSH2 0x69A DUP5 PUSH2 0x64F JUMP JUMPDEST PUSH2 0x602 JUMP JUMPDEST SWAP1 POP DUP3 DUP2 MSTORE PUSH1 0x20 DUP2 ADD DUP5 DUP5 DUP5 ADD GT ISZERO PUSH2 0x6BB JUMPI PUSH2 0x6BA PUSH2 0x64B JUMP JUMPDEST JUMPDEST PUSH2 0x6C6 DUP5 DUP3 DUP6 PUSH2 0x67F JUMP JUMPDEST POP SWAP4 SWAP3 POP POP POP JUMP JUMPDEST PUSH0 DUP3 PUSH1 0x1F DUP4 ADD SLT PUSH2 0x6E2 JUMPI PUSH2 0x6E1 PUSH2 0x590 JUMP JUMPDEST JUMPDEST DUP2 CALLDATALOAD PUSH2 0x6F2 DUP5 DUP3 PUSH1 0x20 DUP7 ADD PUSH2 0x68D JUMP JUMPDEST SWAP2 POP POP SWAP3 SWAP2 POP POP JUMP JUMPDEST PUSH0 PUSH2 0x70D PUSH2 0x708 DUP5 PUSH2 0x61C JUMP JUMPDEST PUSH2 0x602 JUMP JUMPDEST SWAP1 POP DUP1 DUP4 DUP3 MSTORE PUSH1 0x20 DUP3 ADD SWAP1 POP PUSH1 0x20 DUP5 MUL DUP4 ADD DUP6 DUP2 GT ISZERO PUSH2 0x730 JUMPI PUSH2 0x72F PUSH2 0x647 JUMP JUMPDEST JUMPDEST DUP4 JUMPDEST DUP2 DUP2 LT ISZERO PUSH2 0x777 JUMPI DUP1 CALLDATALOAD PUSH8 0xFFFFFFFFFFFFFFFF DUP2 GT ISZERO PUSH2 0x755 JUMPI PUSH2 0x754 PUSH2 0x590 JUMP JUMPDEST JUMPDEST DUP1 DUP7 ADD PUSH2 0x762 DUP10 DUP3 PUSH2 0x6CE JUMP JUMPDEST DUP6 MSTORE PUSH1 0x20 DUP6 ADD SWAP5 POP POP POP PUSH1 0x20 DUP2 ADD SWAP1 POP PUSH2 0x732 JUMP JUMPDEST POP POP POP SWAP4 SWAP3 POP POP POP JUMP JUMPDEST PUSH0 DUP3 PUSH1 0x1F DUP4 ADD SLT PUSH2 0x795 JUMPI PUSH2 0x794 PUSH2 0x590 JUMP JUMPDEST JUMPDEST DUP2 CALLDATALOAD PUSH2 0x7A5 DUP5 DUP3 PUSH1 0x20 DUP7 ADD PUSH2 0x6FB JUMP JUMPDEST SWAP2 POP POP SWAP3 SWAP2 POP POP JUMP JUMPDEST PUSH0 PUSH1 0x20 DUP3 DUP5 SUB SLT ISZERO PUSH2 0x7C3 JUMPI PUSH2 0x7C2 PUSH2 0x4D0 JUMP JUMPDEST JUMPDEST PUSH0 DUP3 ADD CALLDATALOAD PUSH8 0xFFFFFFFFFFFFFFFF DUP2 GT ISZERO PUSH2 0x7E0 JUMPI PUSH2 0x7DF PUSH2 0x4D4 JUMP JUMPDEST JUMPDEST PUSH2 0x7EC DUP5 DUP3 DUP6 ADD PUSH2 0x781 JUMP JUMPDEST SWAP2 POP POP SWAP3 SWAP2 POP POP JUMP JUMPDEST PUSH2 0x7FE DUP2 PUSH2 0x4F7 JUMP JUMPDEST DUP3 MSTORE POP POP JUMP JUMPDEST PUSH0 PUSH1 0x20 DUP3 ADD SWAP1 POP PUSH2 0x817 PUSH0 DUP4 ADD DUP5 PUSH2 0x7F5 JUMP JUMPDEST SWAP3 SWAP2 POP POP JUMP JUMPDEST PUSH0 DUP2 SWAP1 POP SWAP2 SWAP1 POP JUMP JUMPDEST PUSH2 0x82F DUP2 PUSH2 0x81D JUMP JUMPDEST DUP3 MSTORE POP POP JUMP JUMPDEST PUSH0 PUSH1 0x20 DUP3 ADD SWAP1 POP PUSH2 0x848 PUSH0 DUP4 ADD DUP5 PUSH2 0x826 JUMP JUMPDEST SWAP3 SWAP2 POP POP JUMP JUMPDEST PUSH0 DUP3 DUP3 MSTORE PUSH1 0x20 DUP3 ADD SWAP1 POP SWAP3 SWAP2 POP POP JUMP JUMPDEST PUSH32 0x416C726561647920706C6179656420746865207175697A000000000000000000 PUSH0 DUP3 ADD MSTORE POP JUMP JUMPDEST PUSH0 PUSH2 0x892 PUSH1 0x17 DUP4 PUSH2 0x84E JUMP JUMPDEST SWAP2 POP PUSH2 0x89D DUP3 PUSH2 0x85E JUMP JUMPDEST PUSH1 0x20 DUP3 ADD SWAP1 POP SWAP2 SWAP1 POP JUMP JUMPDEST PUSH0 PUSH1 0x20 DUP3 ADD SWAP1 POP DUP2 DUP2 SUB PUSH0 DUP4 ADD MSTORE PUSH2 0x8BF DUP2 PUSH2 0x886 JUMP JUMPDEST SWAP1 POP SWAP2 SWAP1 POP JUMP JUMPDEST PUSH32 0x496E636F7272656374206E756D626572206F6620616E73776572732070726F76 PUSH0 DUP3 ADD MSTORE PUSH32 0x6964656400000000000000000000000000000000000000000000000000000000 PUSH1 0x20 DUP3 ADD MSTORE POP JUMP JUMPDEST PUSH0 PUSH2 0x920 PUSH1 0x24 DUP4 PUSH2 0x84E JUMP JUMPDEST SWAP2 POP PUSH2 0x92B DUP3 PUSH2 0x8C6 JUMP JUMPDEST PUSH1 0x40 DUP3 ADD SWAP1 POP SWAP2 SWAP1 POP JUMP JUMPDEST PUSH0 PUSH1 0x20 DUP3 ADD SWAP1 POP DUP2 DUP2 SUB PUSH0 DUP4 ADD MSTORE PUSH2 0x94D DUP2 PUSH2 0x914 JUMP JUMPDEST SWAP1 POP SWAP2 SWAP1 POP JUMP JUMPDEST PUSH32 0x4E487B7100000000000000000000000000000000000000000000000000000000 PUSH0 MSTORE PUSH1 0x32 PUSH1 0x4 MSTORE PUSH1 0x24 PUSH0 REVERT JUMPDEST PUSH0 PUSH1 0x40 DUP3 ADD SWAP1 POP PUSH2 0x994 PUSH0 DUP4 ADD DUP6 PUSH2 0x7F5 JUMP JUMPDEST PUSH2 0x9A1 PUSH1 0x20 DUP4 ADD DUP5 PUSH2 0x826 JUMP JUMPDEST SWAP4 SWAP3 POP POP POP JUMP INVALID LOG2 PUSH5 0x6970667358 0x22 SLT KECCAK256 0x21 DUP7 0xD5 0xBE PUSH0 LOG3 PUSH25 0x227C79D1B2786F9E1CF6987A8B5F315970E21CEC701B83D37D PUSH5 0x736F6C6343 STOP ADDMOD AND STOP CALLER "
				},
				"gasEstimates": {
					"creation": {
						"codeDepositCost": "505200",
						"executionCost": "infinite",
						"totalCost": "infinite"
					},
					"external": {
						"hasPlayed(address)": "2811",
						"playQuiz(string[])": "infinite",
						"rewardAmount()": "2469",
						"tokenAddress()": "2527"
					}
				},
				"methodIdentifiers": {
					"hasPlayed(address)": "32d0bbe3",
					"playQuiz(string[])": "6e04721f",
					"rewardAmount()": "f7b2a7be",
					"tokenAddress()": "9d76ea58"
				}
			},
			"storageLayout": {
				"storage": [
					{
						"astId": 1246,
						"contract": "token.sol:QuizGame",
						"label": "tokenAddress",
						"offset": 0,
						"slot": "0",
						"type": "t_address"
					},
					{
						"astId": 1248,
						"contract": "token.sol:QuizGame",
						"label": "rewardAmount",
						"offset": 0,
						"slot": "1",
						"type": "t_uint256"
					},
					{
						"astId": 1252,
						"contract": "token.sol:QuizGame",
						"label": "hasPlayed",
						"offset": 0,
						"slot": "2",
						"type": "t_mapping(t_address,t_bool)"
					}
				],
				"types": {
					"t_address": {
						"encoding": "inplace",
						"label": "address",
						"numberOfBytes": "20"
					},
					"t_bool": {
						"encoding": "inplace",
						"label": "bool",
						"numberOfBytes": "1"
					},
					"t_mapping(t_address,t_bool)": {
						"encoding": "mapping",
						"key": "t_address",
						"label": "mapping(address => bool)",
						"numberOfBytes": "32",
						"value": "t_bool"
					},
					"t_uint256": {
						"encoding": "inplace",
						"label": "uint256",
						"numberOfBytes": "32"
					}
				}
			},
			"userdoc": {
				"kind": "user",
				"methods": {},
				"version": 1
			}
		}
	}
}